{
  "contractName": "DogERC721",
  "abi": [
    {
      "constant": true,
      "inputs": [
        {
          "name": "",
          "type": "uint256"
        }
      ],
      "name": "_pack",
      "outputs": [
        {
          "name": "name",
          "type": "string"
        },
        {
          "name": "dob",
          "type": "uint256"
        },
        {
          "name": "microchip",
          "type": "string"
        },
        {
          "name": "dam",
          "type": "uint256"
        },
        {
          "name": "sire",
          "type": "uint256"
        },
        {
          "name": "sex",
          "type": "uint8"
        },
        {
          "name": "timestamp",
          "type": "uint256"
        }
      ],
      "payable": false,
      "stateMutability": "view",
      "type": "function"
    },
    {
      "constant": false,
      "inputs": [],
      "name": "renounceOwnership",
      "outputs": [],
      "payable": false,
      "stateMutability": "nonpayable",
      "type": "function"
    },
    {
      "constant": true,
      "inputs": [],
      "name": "owner",
      "outputs": [
        {
          "name": "",
          "type": "address"
        }
      ],
      "payable": false,
      "stateMutability": "view",
      "type": "function"
    },
    {
      "constant": true,
      "inputs": [],
      "name": "isOwner",
      "outputs": [
        {
          "name": "",
          "type": "bool"
        }
      ],
      "payable": false,
      "stateMutability": "view",
      "type": "function"
    },
    {
      "constant": false,
      "inputs": [
        {
          "name": "newOwner",
          "type": "address"
        }
      ],
      "name": "transferOwnership",
      "outputs": [],
      "payable": false,
      "stateMutability": "nonpayable",
      "type": "function"
    },
    {
      "anonymous": false,
      "inputs": [
        {
          "indexed": true,
          "name": "_from",
          "type": "address"
        },
        {
          "indexed": true,
          "name": "_to",
          "type": "address"
        },
        {
          "indexed": false,
          "name": "_tokenId",
          "type": "uint256"
        }
      ],
      "name": "Transfer",
      "type": "event"
    },
    {
      "anonymous": false,
      "inputs": [
        {
          "indexed": true,
          "name": "_owner",
          "type": "address"
        },
        {
          "indexed": true,
          "name": "_approved",
          "type": "address"
        },
        {
          "indexed": false,
          "name": "_tokenId",
          "type": "uint256"
        }
      ],
      "name": "Approval",
      "type": "event"
    },
    {
      "anonymous": false,
      "inputs": [
        {
          "indexed": true,
          "name": "_owner",
          "type": "address"
        },
        {
          "indexed": true,
          "name": "_operator",
          "type": "address"
        },
        {
          "indexed": false,
          "name": "_approved",
          "type": "bool"
        }
      ],
      "name": "ApprovalForAll",
      "type": "event"
    },
    {
      "anonymous": false,
      "inputs": [
        {
          "indexed": true,
          "name": "previousOwner",
          "type": "address"
        }
      ],
      "name": "OwnershipRenounced",
      "type": "event"
    },
    {
      "anonymous": false,
      "inputs": [
        {
          "indexed": true,
          "name": "previousOwner",
          "type": "address"
        },
        {
          "indexed": true,
          "name": "newOwner",
          "type": "address"
        }
      ],
      "name": "OwnershipTransferred",
      "type": "event"
    },
    {
      "constant": true,
      "inputs": [],
      "name": "totalSupply",
      "outputs": [
        {
          "name": "",
          "type": "uint256"
        }
      ],
      "payable": false,
      "stateMutability": "view",
      "type": "function"
    },
    {
      "constant": true,
      "inputs": [
        {
          "name": "_owner",
          "type": "address"
        }
      ],
      "name": "balanceOf",
      "outputs": [
        {
          "name": "_balance",
          "type": "uint256"
        }
      ],
      "payable": false,
      "stateMutability": "view",
      "type": "function"
    },
    {
      "constant": true,
      "inputs": [
        {
          "name": "_tokenId",
          "type": "uint256"
        }
      ],
      "name": "ownerOf",
      "outputs": [
        {
          "name": "_owner",
          "type": "address"
        }
      ],
      "payable": false,
      "stateMutability": "view",
      "type": "function"
    },
    {
      "constant": true,
      "inputs": [
        {
          "name": "_tokenId",
          "type": "uint256"
        }
      ],
      "name": "exists",
      "outputs": [
        {
          "name": "_exists",
          "type": "bool"
        }
      ],
      "payable": false,
      "stateMutability": "view",
      "type": "function"
    },
    {
      "constant": false,
      "inputs": [
        {
          "name": "_to",
          "type": "address"
        },
        {
          "name": "_tokenId",
          "type": "uint256"
        }
      ],
      "name": "approve",
      "outputs": [],
      "payable": false,
      "stateMutability": "nonpayable",
      "type": "function"
    },
    {
      "constant": true,
      "inputs": [
        {
          "name": "_tokenId",
          "type": "uint256"
        }
      ],
      "name": "getApproved",
      "outputs": [
        {
          "name": "",
          "type": "address"
        }
      ],
      "payable": false,
      "stateMutability": "view",
      "type": "function"
    },
    {
      "constant": true,
      "inputs": [
        {
          "name": "_owner",
          "type": "address"
        },
        {
          "name": "_operator",
          "type": "address"
        }
      ],
      "name": "isApprovedForAll",
      "outputs": [
        {
          "name": "",
          "type": "bool"
        }
      ],
      "payable": false,
      "stateMutability": "view",
      "type": "function"
    },
    {
      "constant": false,
      "inputs": [
        {
          "name": "name",
          "type": "string"
        },
        {
          "name": "dob",
          "type": "uint256"
        },
        {
          "name": "microchip",
          "type": "string"
        },
        {
          "name": "sex",
          "type": "uint8"
        },
        {
          "name": "dam",
          "type": "uint256"
        },
        {
          "name": "sire",
          "type": "uint256"
        },
        {
          "name": "owner",
          "type": "address"
        }
      ],
      "name": "add",
      "outputs": [],
      "payable": true,
      "stateMutability": "payable",
      "type": "function"
    }
  ],
  "bytecode": "0x6080604052336000806101000a81548173ffffffffffffffffffffffffffffffffffffffff021916908373ffffffffffffffffffffffffffffffffffffffff1602179055506113ee806100536000396000f3fe6080604052600436106100c5576000357c0100000000000000000000000000000000000000000000000000000000900463ffffffff168063081812fc146100ca578063082b23eb14610145578063095ea7b31461029657806313076122146102f157806318160ddd1461040a5780634f558e79146104355780636352211e1461048857806370a0823114610503578063715018a6146105685780638da5cb5b1461057f5780638f32d59b146105d6578063e985e9c514610605578063f2fde38b1461068e575b600080fd5b3480156100d657600080fd5b50610103600480360360208110156100ed57600080fd5b81019080803590602001909291905050506106df565b604051808273ffffffffffffffffffffffffffffffffffffffff1673ffffffffffffffffffffffffffffffffffffffff16815260200191505060405180910390f35b34801561015157600080fd5b5061017e6004803603602081101561016857600080fd5b810190808035906020019092919050505061071c565b6040518080602001888152602001806020018781526020018681526020018560018111156101a857fe5b60ff16815260200184815260200183810383528a818151815260200191508051906020019080838360005b838110156101ee5780820151818401526020810190506101d3565b50505050905090810190601f16801561021b5780820380516001836020036101000a031916815260200191505b50838103825288818151815260200191508051906020019080838360005b83811015610254578082015181840152602081019050610239565b50505050905090810190601f1680156102815780820380516001836020036101000a031916815260200191505b50995050505050505050505060405180910390f35b3480156102a257600080fd5b506102ef600480360360408110156102b957600080fd5b81019080803573ffffffffffffffffffffffffffffffffffffffff169060200190929190803590602001909291905050506108aa565b005b610408600480360360e081101561030757600080fd5b810190808035906020019064010000000081111561032457600080fd5b82018360208201111561033657600080fd5b8035906020019184600183028401116401000000008311171561035857600080fd5b9091929391929390803590602001909291908035906020019064010000000081111561038357600080fd5b82018360208201111561039557600080fd5b803590602001918460018302840111640100000000831117156103b757600080fd5b9091929391929390803560ff1690602001909291908035906020019092919080359060200190929190803573ffffffffffffffffffffffffffffffffffffffff169060200190929190505050610af6565b005b34801561041657600080fd5b5061041f610ce0565b6040518082815260200191505060405180910390f35b34801561044157600080fd5b5061046e6004803603602081101561045857600080fd5b8101908080359060200190929190505050610ced565b604051808215151515815260200191505060405180910390f35b34801561049457600080fd5b506104c1600480360360208110156104ab57600080fd5b8101908080359060200190929190505050610d5f565b604051808273ffffffffffffffffffffffffffffffffffffffff1673ffffffffffffffffffffffffffffffffffffffff16815260200191505060405180910390f35b34801561050f57600080fd5b506105526004803603602081101561052657600080fd5b81019080803573ffffffffffffffffffffffffffffffffffffffff169060200190929190505050610d9c565b6040518082815260200191505060405180910390f35b34801561057457600080fd5b5061057d610e89565b005b34801561058b57600080fd5b50610594610fd2565b604051808273ffffffffffffffffffffffffffffffffffffffff1673ffffffffffffffffffffffffffffffffffffffff16815260200191505060405180910390f35b3480156105e257600080fd5b506105eb610ffb565b604051808215151515815260200191505060405180910390f35b34801561061157600080fd5b506106746004803603604081101561062857600080fd5b81019080803573ffffffffffffffffffffffffffffffffffffffff169060200190929190803573ffffffffffffffffffffffffffffffffffffffff169060200190929190505050611052565b604051808215151515815260200191505060405180910390f35b34801561069a57600080fd5b506106dd600480360360208110156106b157600080fd5b81019080803573ffffffffffffffffffffffffffffffffffffffff1690602001909291905050506110e6565b005b60006003600083815260200190815260200160002060009054906101000a900473ffffffffffffffffffffffffffffffffffffffff169050919050565b60068181548110151561072b57fe5b9060005260206000209060070201600091509050806000018054600181600116156101000203166002900480601f0160208091040260200160405190810160405280929190818152602001828054600181600116156101000203166002900480156107d75780601f106107ac576101008083540402835291602001916107d7565b820191906000526020600020905b8154815290600101906020018083116107ba57829003601f168201915b505050505090806001015490806002018054600181600116156101000203166002900480601f01602080910402602001604051908101604052809291908181526020018280546001816001161561010002031660029004801561087b5780601f106108505761010080835404028352916020019161087b565b820191906000526020600020905b81548152906001019060200180831161085e57829003601f168201915b5050505050908060030154908060040154908060050160009054906101000a900460ff16908060060154905087565b60006002600083815260200190815260200160002060009054906101000a900473ffffffffffffffffffffffffffffffffffffffff1690508073ffffffffffffffffffffffffffffffffffffffff168373ffffffffffffffffffffffffffffffffffffffff1614151515610986576040517f08c379a00000000000000000000000000000000000000000000000000000000081526004018080602001828103825260108152602001807f43616e206e6f74206265206f776e65720000000000000000000000000000000081525060200191505060405180910390fd5b8073ffffffffffffffffffffffffffffffffffffffff163373ffffffffffffffffffffffffffffffffffffffff1614806109c657506109c58133611052565b5b1515610a3a576040517f08c379a00000000000000000000000000000000000000000000000000000000081526004018080602001828103825260078152602001807f496e76616c69640000000000000000000000000000000000000000000000000081525060200191505060405180910390fd5b826003600084815260200190815260200160002060006101000a81548173ffffffffffffffffffffffffffffffffffffffff021916908373ffffffffffffffffffffffffffffffffffffffff1602179055508273ffffffffffffffffffffffffffffffffffffffff168173ffffffffffffffffffffffffffffffffffffffff167f8c5be1e5ebec7d5bd14f71427d1e84f3dd0314c0f7b2291e5b200ac8c7c3b925846040518082815260200191505060405180910390a3505050565b60006006805490509050600660e0604051908101604052808c8c8080601f016020809104026020016040519081016040528093929190818152602001838380828437600081840152601f19601f8201169050808301925050505050505081526020018a815260200189898080601f016020809104026020016040519081016040528093929190818152602001838380828437600081840152601f19601f820116905080830192505050505050508152602001868152602001858152602001876001811115610bc057fe5b815260200142815250908060018154018082558091505090600182039060005260206000209060070201600090919290919091506000820151816000019080519060200190610c1092919061131d565b50602082015181600101556040820151816002019080519060200190610c3792919061131d565b50606082015181600301556080820151816004015560a08201518160050160006101000a81548160ff02191690836001811115610c7057fe5b021790555060c08201518160060155505050816002600083815260200190815260200160002060006101000a81548173ffffffffffffffffffffffffffffffffffffffff021916908373ffffffffffffffffffffffffffffffffffffffff16021790555050505050505050505050565b6000600680549050905090565b6000806002600084815260200190815260200160002060009054906101000a900473ffffffffffffffffffffffffffffffffffffffff169050600073ffffffffffffffffffffffffffffffffffffffff168173ffffffffffffffffffffffffffffffffffffffff161415915050919050565b60006002600083815260200190815260200160002060009054906101000a900473ffffffffffffffffffffffffffffffffffffffff169050919050565b60008073ffffffffffffffffffffffffffffffffffffffff168273ffffffffffffffffffffffffffffffffffffffff1614151515610e42576040517f08c379a000000000000000000000000000000000000000000000000000000000815260040180806020018281038252600f8152602001807f496e76616c69642061646472657373000000000000000000000000000000000081525060200191505060405180910390fd5b600460008373ffffffffffffffffffffffffffffffffffffffff1673ffffffffffffffffffffffffffffffffffffffff168152602001908152602001600020549050919050565b610e91610ffb565b1515610f2b576040517f08c379a00000000000000000000000000000000000000000000000000000000081526004018080602001828103825260268152602001807f4f6e6c7920746865206f776e65722063616e20706572666f726d20746869732081526020017f616374696f6e000000000000000000000000000000000000000000000000000081525060400191505060405180910390fd5b6000809054906101000a900473ffffffffffffffffffffffffffffffffffffffff1673ffffffffffffffffffffffffffffffffffffffff167ff8df31144d9c2f0f6b59d69b8b98abd5459d07f2742c4df920b25aae33c6482060405160405180910390a260008060006101000a81548173ffffffffffffffffffffffffffffffffffffffff021916908373ffffffffffffffffffffffffffffffffffffffff160217905550565b60008060009054906101000a900473ffffffffffffffffffffffffffffffffffffffff16905090565b60008060009054906101000a900473ffffffffffffffffffffffffffffffffffffffff1673ffffffffffffffffffffffffffffffffffffffff163373ffffffffffffffffffffffffffffffffffffffff1614905090565b6000600560008473ffffffffffffffffffffffffffffffffffffffff1673ffffffffffffffffffffffffffffffffffffffff16815260200190815260200160002060008373ffffffffffffffffffffffffffffffffffffffff1673ffffffffffffffffffffffffffffffffffffffff16815260200190815260200160002060009054906101000a900460ff16905092915050565b6110ee610ffb565b1515611188576040517f08c379a00000000000000000000000000000000000000000000000000000000081526004018080602001828103825260268152602001807f4f6e6c7920746865206f776e65722063616e20706572666f726d20746869732081526020017f616374696f6e000000000000000000000000000000000000000000000000000081525060400191505060405180910390fd5b61119181611194565b50565b600073ffffffffffffffffffffffffffffffffffffffff168173ffffffffffffffffffffffffffffffffffffffff161415151561125f576040517f08c379a00000000000000000000000000000000000000000000000000000000081526004018080602001828103825260278152602001807f596f752063616e6e6f74207472616e7366657220746f20746865207a65726f2081526020017f616464726573730000000000000000000000000000000000000000000000000081525060400191505060405180910390fd5b8073ffffffffffffffffffffffffffffffffffffffff166000809054906101000a900473ffffffffffffffffffffffffffffffffffffffff1673ffffffffffffffffffffffffffffffffffffffff167f8be0079c531659141344cd1fd0a4f28419497f9722a3daafe3b4186f6b6457e060405160405180910390a3806000806101000a81548173ffffffffffffffffffffffffffffffffffffffff021916908373ffffffffffffffffffffffffffffffffffffffff16021790555050565b828054600181600116156101000203166002900490600052602060002090601f016020900481019282601f1061135e57805160ff191683800117855561138c565b8280016001018555821561138c579182015b8281111561138b578251825591602001919060010190611370565b5b509050611399919061139d565b5090565b6113bf91905b808211156113bb5760008160009055506001016113a3565b5090565b9056fea165627a7a723058205948bc0b3e732fcaf0c3596118c6d1a596a09631e73367f8c31507793bf0cc300029",
  "source": "pragma solidity ^0.5.0;\n\nimport \"./Ownable.sol\";\nimport \"./IERC721.sol\";\n\n//ERC721\ncontract DogERC721 is IERC721, Ownable {\n    \n    enum Sex {\n        Male,\n        Female\n    }\n    \n    struct Dog {\n        string name;\n        uint256 dob;\n        string microchip;\n        uint256 dam;\n        uint256 sire;\n        Sex sex;\n        uint256 timestamp;\n    }\n    \n    mapping(address => bool) private _writers;\n    mapping(uint256 => address) private _tokenOwner;\n    mapping(uint256 => address) private _tokenApprovals;\n\n    mapping(address => uint256) private _ownedTokensCount;\n    mapping (address => mapping (address => bool)) private operatorApprovals;\n\n    Dog[] public _pack;\n\n    function totalSupply() public view returns(uint256) {\n        return _pack.length;\n    }\n\n    function balanceOf(address _owner) external view returns (uint256 _balance) {\n        require(_owner != address(0), \"Invalid address\");\n        return _ownedTokensCount[_owner];\n    }\n    \n    function ownerOf(uint256 _tokenId) external view returns (address _owner) {\n        return _tokenOwner[_tokenId];\n    }\n    \n    function exists(uint256 _tokenId) external view returns (bool _exists) {\n        address owner = _tokenOwner[_tokenId];\n        return owner != address(0);\n    }\n\n    function approve(address _to, uint256 _tokenId) public {\n        address owner = _tokenOwner[_tokenId]; //ownerOf(_tokenId);\n\n        require(_to != owner, \"Can not be owner\");\n        require(msg.sender == owner || isApprovedForAll(owner, msg.sender), \"Invalid\");\n\n        _tokenApprovals[_tokenId] = _to;\n        emit Approval(owner, _to, _tokenId);\n    }\n\n    function getApproved(uint256 _tokenId) external view returns (address) {\n        return _tokenApprovals[_tokenId];\n    }\n\n    function isApprovedForAll(address _owner, address _operator) public view returns (bool) {\n        return operatorApprovals[_owner][_operator];\n    }\n\n    function add(string calldata name, uint256 dob, string calldata microchip, Sex sex, uint256 dam, uint256 sire, address owner) external payable {\n        uint id = _pack.length;\n        _pack.push(Dog(name, dob, microchip, dam, sire, sex, now));\n        _tokenOwner[id] = owner;\n    }\n\n    // function add(string memory name, uint256 dob, Sex sex, uint256 dam, uint256 sire, address owner) external payable {\n    //     uint id = _pack.length;\n    //     _pack.push(Dog(name, dob, \"\", dam, sire, sex, now));\n    //     _tokenOwner[id] = owner;\n    // }\n\n    // function get(uint256 id) external returns (uint256, string memory, uint256, Sex, uint256, uint256, address) {\n    //     return (_pack[id].id, _pack[id].name, _pack[id].dob, _pack[id].sex, _pack[id].dam, _pack[id].sire, _pack[id].owner);\n    // }\n\n    modifier onlyWriters() {\n        require(_writers[msg.sender] = true, \"Not authorised\");\n        _;\n    }\n\n    event Transfer(address indexed _from, address indexed _to, uint256 _tokenId);\n    event Approval(address indexed _owner, address indexed _approved, uint256 _tokenId);\n    event ApprovalForAll(address indexed _owner, address indexed _operator, bool _approved); \n}",
  "sourcePath": "/home/lucascullen/GitHub/BitcoinBrisbane/puppies/src/contracts/Dog.sol",
  "compiler": {
    "name": "solc",
    "version": "0.5.0+commit.1d4f565a.Emscripten.clang"
  },
  "schemaVersion": "3.0.1",
  "updatedAt": "2019-01-27T03:48:37.529Z",
  "devdoc": {
    "methods": {}
  },
  "userdoc": {
    "methods": {}
  }
}