{
  "contractName": "DogERC721",
  "abi": [
    {
      "constant": true,
      "inputs": [
        {
          "name": "",
          "type": "uint256"
        }
      ],
      "name": "_pack",
      "outputs": [
        {
          "name": "name",
          "type": "string"
        },
        {
          "name": "dob",
          "type": "uint256"
        },
        {
          "name": "microchip",
          "type": "string"
        },
        {
          "name": "dam",
          "type": "uint256"
        },
        {
          "name": "sire",
          "type": "uint256"
        },
        {
          "name": "sex",
          "type": "uint8"
        },
        {
          "name": "timestamp",
          "type": "uint256"
        }
      ],
      "payable": false,
      "stateMutability": "view",
      "type": "function"
    },
    {
      "anonymous": false,
      "inputs": [
        {
          "indexed": true,
          "name": "_from",
          "type": "address"
        },
        {
          "indexed": true,
          "name": "_to",
          "type": "address"
        },
        {
          "indexed": false,
          "name": "_tokenId",
          "type": "uint256"
        }
      ],
      "name": "Transfer",
      "type": "event"
    },
    {
      "anonymous": false,
      "inputs": [
        {
          "indexed": true,
          "name": "_owner",
          "type": "address"
        },
        {
          "indexed": true,
          "name": "_approved",
          "type": "address"
        },
        {
          "indexed": false,
          "name": "_tokenId",
          "type": "uint256"
        }
      ],
      "name": "Approval",
      "type": "event"
    },
    {
      "anonymous": false,
      "inputs": [
        {
          "indexed": true,
          "name": "_owner",
          "type": "address"
        },
        {
          "indexed": true,
          "name": "_operator",
          "type": "address"
        },
        {
          "indexed": false,
          "name": "_approved",
          "type": "bool"
        }
      ],
      "name": "ApprovalForAll",
      "type": "event"
    },
    {
      "constant": true,
      "inputs": [],
      "name": "totalSupply",
      "outputs": [
        {
          "name": "",
          "type": "uint256"
        }
      ],
      "payable": false,
      "stateMutability": "view",
      "type": "function"
    },
    {
      "constant": true,
      "inputs": [
        {
          "name": "_owner",
          "type": "address"
        }
      ],
      "name": "balanceOf",
      "outputs": [
        {
          "name": "_balance",
          "type": "uint256"
        }
      ],
      "payable": false,
      "stateMutability": "view",
      "type": "function"
    },
    {
      "constant": true,
      "inputs": [
        {
          "name": "_tokenId",
          "type": "uint256"
        }
      ],
      "name": "exists",
      "outputs": [
        {
          "name": "_exists",
          "type": "bool"
        }
      ],
      "payable": false,
      "stateMutability": "view",
      "type": "function"
    },
    {
      "constant": true,
      "inputs": [
        {
          "name": "_tokenId",
          "type": "uint256"
        }
      ],
      "name": "ownerOf",
      "outputs": [
        {
          "name": "",
          "type": "address"
        }
      ],
      "payable": false,
      "stateMutability": "view",
      "type": "function"
    },
    {
      "constant": false,
      "inputs": [
        {
          "name": "_to",
          "type": "address"
        },
        {
          "name": "_tokenId",
          "type": "uint256"
        }
      ],
      "name": "approve",
      "outputs": [],
      "payable": false,
      "stateMutability": "nonpayable",
      "type": "function"
    },
    {
      "constant": true,
      "inputs": [
        {
          "name": "_tokenId",
          "type": "uint256"
        }
      ],
      "name": "getApproved",
      "outputs": [
        {
          "name": "",
          "type": "address"
        }
      ],
      "payable": false,
      "stateMutability": "view",
      "type": "function"
    },
    {
      "constant": false,
      "inputs": [
        {
          "name": "_to",
          "type": "address"
        },
        {
          "name": "_approved",
          "type": "bool"
        }
      ],
      "name": "setApprovalForAll",
      "outputs": [],
      "payable": false,
      "stateMutability": "nonpayable",
      "type": "function"
    },
    {
      "constant": true,
      "inputs": [
        {
          "name": "_owner",
          "type": "address"
        },
        {
          "name": "_operator",
          "type": "address"
        }
      ],
      "name": "isApprovedForAll",
      "outputs": [
        {
          "name": "",
          "type": "bool"
        }
      ],
      "payable": false,
      "stateMutability": "view",
      "type": "function"
    },
    {
      "constant": false,
      "inputs": [
        {
          "name": "_from",
          "type": "address"
        },
        {
          "name": "_to",
          "type": "address"
        },
        {
          "name": "_tokenId",
          "type": "uint256"
        }
      ],
      "name": "transferFrom",
      "outputs": [],
      "payable": false,
      "stateMutability": "nonpayable",
      "type": "function"
    },
    {
      "constant": false,
      "inputs": [
        {
          "name": "_from",
          "type": "address"
        },
        {
          "name": "_to",
          "type": "address"
        },
        {
          "name": "_tokenId",
          "type": "uint256"
        }
      ],
      "name": "safeTransferFrom",
      "outputs": [],
      "payable": false,
      "stateMutability": "nonpayable",
      "type": "function"
    },
    {
      "constant": false,
      "inputs": [
        {
          "name": "_from",
          "type": "address"
        },
        {
          "name": "_to",
          "type": "address"
        },
        {
          "name": "_tokenId",
          "type": "uint256"
        },
        {
          "name": "_data",
          "type": "bytes"
        }
      ],
      "name": "safeTransferFrom",
      "outputs": [],
      "payable": false,
      "stateMutability": "nonpayable",
      "type": "function"
    },
    {
      "constant": false,
      "inputs": [
        {
          "name": "name",
          "type": "string"
        },
        {
          "name": "dob",
          "type": "uint256"
        },
        {
          "name": "microchip",
          "type": "string"
        },
        {
          "name": "sex",
          "type": "uint8"
        },
        {
          "name": "dam",
          "type": "uint256"
        },
        {
          "name": "sire",
          "type": "uint256"
        },
        {
          "name": "owner",
          "type": "address"
        }
      ],
      "name": "add",
      "outputs": [],
      "payable": true,
      "stateMutability": "payable",
      "type": "function"
    },
    {
      "constant": true,
      "inputs": [
        {
          "name": "_tokenId",
          "type": "uint256"
        }
      ],
      "name": "get",
      "outputs": [
        {
          "name": "",
          "type": "string"
        },
        {
          "name": "",
          "type": "uint256"
        },
        {
          "name": "",
          "type": "uint8"
        },
        {
          "name": "",
          "type": "uint256"
        },
        {
          "name": "",
          "type": "uint256"
        },
        {
          "name": "",
          "type": "address"
        }
      ],
      "payable": false,
      "stateMutability": "view",
      "type": "function"
    }
  ],
  "bytecode": "0x608060405234801561001057600080fd5b506119e8806100206000396000f3fe6080604052600436106100d0576000357c0100000000000000000000000000000000000000000000000000000000900463ffffffff168063081812fc146100d5578063082b23eb14610150578063095ea7b3146102a157806313076122146102fc57806318160ddd1461041557806323b872dd1461044057806342842e0e146104bb5780634f558e79146105365780636352211e1461058957806370a08231146106045780639507d39a14610669578063a22cb4651461077a578063b88d4fde146107d7578063e985e9c5146108a7575b600080fd5b3480156100e157600080fd5b5061010e600480360360208110156100f857600080fd5b8101908080359060200190929190505050610930565b604051808273ffffffffffffffffffffffffffffffffffffffff1673ffffffffffffffffffffffffffffffffffffffff16815260200191505060405180910390f35b34801561015c57600080fd5b506101896004803603602081101561017357600080fd5b810190808035906020019092919050505061096d565b6040518080602001888152602001806020018781526020018681526020018560018111156101b357fe5b60ff16815260200184815260200183810383528a818151815260200191508051906020019080838360005b838110156101f95780820151818401526020810190506101de565b50505050905090810190601f1680156102265780820380516001836020036101000a031916815260200191505b50838103825288818151815260200191508051906020019080838360005b8381101561025f578082015181840152602081019050610244565b50505050905090810190601f16801561028c5780820380516001836020036101000a031916815260200191505b50995050505050505050505060405180910390f35b3480156102ad57600080fd5b506102fa600480360360408110156102c457600080fd5b81019080803573ffffffffffffffffffffffffffffffffffffffff16906020019092919080359060200190929190505050610afb565b005b610413600480360360e081101561031257600080fd5b810190808035906020019064010000000081111561032f57600080fd5b82018360208201111561034157600080fd5b8035906020019184600183028401116401000000008311171561036357600080fd5b9091929391929390803590602001909291908035906020019064010000000081111561038e57600080fd5b8201836020820111156103a057600080fd5b803590602001918460018302840111640100000000831117156103c257600080fd5b9091929391929390803560ff1690602001909291908035906020019092919080359060200190929190803573ffffffffffffffffffffffffffffffffffffffff169060200190929190505050610d1c565b005b34801561042157600080fd5b5061042a610f06565b6040518082815260200191505060405180910390f35b34801561044c57600080fd5b506104b96004803603606081101561046357600080fd5b81019080803573ffffffffffffffffffffffffffffffffffffffff169060200190929190803573ffffffffffffffffffffffffffffffffffffffff16906020019092919080359060200190929190505050610f13565b005b3480156104c757600080fd5b50610534600480360360608110156104de57600080fd5b81019080803573ffffffffffffffffffffffffffffffffffffffff169060200190929190803573ffffffffffffffffffffffffffffffffffffffff16906020019092919080359060200190929190505050611028565b005b34801561054257600080fd5b5061056f6004803603602081101561055957600080fd5b810190808035906020019092919050505061102d565b604051808215151515815260200191505060405180910390f35b34801561059557600080fd5b506105c2600480360360208110156105ac57600080fd5b810190808035906020019092919050505061106e565b604051808273ffffffffffffffffffffffffffffffffffffffff1673ffffffffffffffffffffffffffffffffffffffff16815260200191505060405180910390f35b34801561061057600080fd5b506106536004803603602081101561062757600080fd5b81019080803573ffffffffffffffffffffffffffffffffffffffff1690602001909291905050506110ab565b6040518082815260200191505060405180910390f35b34801561067557600080fd5b506106a26004803603602081101561068c57600080fd5b8101908080359060200190929190505050611198565b60405180806020018781526020018660018111156106bc57fe5b60ff1681526020018581526020018481526020018373ffffffffffffffffffffffffffffffffffffffff1673ffffffffffffffffffffffffffffffffffffffff168152602001828103825288818151815260200191508051906020019080838360005b8381101561073a57808201518184015260208101905061071f565b50505050905090810190601f1680156107675780820380516001836020036101000a031916815260200191505b5097505050505050505060405180910390f35b34801561078657600080fd5b506107d56004803603604081101561079d57600080fd5b81019080803573ffffffffffffffffffffffffffffffffffffffff169060200190929190803515159060200190929190505050611309565b005b3480156107e357600080fd5b506108a5600480360360808110156107fa57600080fd5b81019080803573ffffffffffffffffffffffffffffffffffffffff169060200190929190803573ffffffffffffffffffffffffffffffffffffffff169060200190929190803590602001909291908035906020019064010000000081111561086157600080fd5b82018360208201111561087357600080fd5b8035906020019184600183028401116401000000008311171561089557600080fd5b9091929391929390505050611445565b005b3480156108b357600080fd5b50610916600480360360408110156108ca57600080fd5b81019080803573ffffffffffffffffffffffffffffffffffffffff169060200190929190803573ffffffffffffffffffffffffffffffffffffffff169060200190929190505050611457565b604051808215151515815260200191505060405180910390f35b60006002600083815260200190815260200160002060009054906101000a900473ffffffffffffffffffffffffffffffffffffffff169050919050565b60058181548110151561097c57fe5b9060005260206000209060070201600091509050806000018054600181600116156101000203166002900480601f016020809104026020016040519081016040528092919081815260200182805460018160011615610100020316600290048015610a285780601f106109fd57610100808354040283529160200191610a28565b820191906000526020600020905b815481529060010190602001808311610a0b57829003601f168201915b505050505090806001015490806002018054600181600116156101000203166002900480601f016020809104026020016040519081016040528092919081815260200182805460018160011615610100020316600290048015610acc5780601f10610aa157610100808354040283529160200191610acc565b820191906000526020600020905b815481529060010190602001808311610aaf57829003601f168201915b5050505050908060030154908060040154908060050160009054906101000a900460ff16908060060154905087565b6000610b068261106e565b90508073ffffffffffffffffffffffffffffffffffffffff168373ffffffffffffffffffffffffffffffffffffffff1614151515610bac576040517f08c379a00000000000000000000000000000000000000000000000000000000081526004018080602001828103825260108152602001807f43616e206e6f74206265206f776e65720000000000000000000000000000000081525060200191505060405180910390fd5b8073ffffffffffffffffffffffffffffffffffffffff163373ffffffffffffffffffffffffffffffffffffffff161480610bec5750610beb8133611457565b5b1515610c60576040517f08c379a00000000000000000000000000000000000000000000000000000000081526004018080602001828103825260078152602001807f496e76616c69640000000000000000000000000000000000000000000000000081525060200191505060405180910390fd5b826002600084815260200190815260200160002060006101000a81548173ffffffffffffffffffffffffffffffffffffffff021916908373ffffffffffffffffffffffffffffffffffffffff1602179055508273ffffffffffffffffffffffffffffffffffffffff168173ffffffffffffffffffffffffffffffffffffffff167f8c5be1e5ebec7d5bd14f71427d1e84f3dd0314c0f7b2291e5b200ac8c7c3b925846040518082815260200191505060405180910390a3505050565b60006005805490509050600560e0604051908101604052808c8c8080601f016020809104026020016040519081016040528093929190818152602001838380828437600081840152601f19601f8201169050808301925050505050505081526020018a815260200189898080601f016020809104026020016040519081016040528093929190818152602001838380828437600081840152601f19601f820116905080830192505050505050508152602001868152602001858152602001876001811115610de657fe5b815260200142815250908060018154018082558091505090600182039060005260206000209060070201600090919290919091506000820151816000019080519060200190610e36929190611917565b50602082015181600101556040820151816002019080519060200190610e5d929190611917565b50606082015181600301556080820151816004015560a08201518160050160006101000a81548160ff02191690836001811115610e9657fe5b021790555060c08201518160060155505050816001600083815260200190815260200160002060006101000a81548173ffffffffffffffffffffffffffffffffffffffff021916908373ffffffffffffffffffffffffffffffffffffffff16021790555050505050505050505050565b6000600580549050905090565b610f1d33826114eb565b1515610f2857600080fd5b600073ffffffffffffffffffffffffffffffffffffffff168373ffffffffffffffffffffffffffffffffffffffff1614151515610f6457600080fd5b600073ffffffffffffffffffffffffffffffffffffffff168273ffffffffffffffffffffffffffffffffffffffff1614151515610fa057600080fd5b610faa83826115ab565b610fb483826116ae565b610fbe82826117cd565b8173ffffffffffffffffffffffffffffffffffffffff168373ffffffffffffffffffffffffffffffffffffffff167fddf252ad1be2c89b69c2b068fc378daa952ba7f163c4a11628f55a4df523b3ef836040518082815260200191505060405180910390a3505050565b505050565b60008073ffffffffffffffffffffffffffffffffffffffff1661104f8361106e565b73ffffffffffffffffffffffffffffffffffffffff1614159050919050565b60006001600083815260200190815260200160002060009054906101000a900473ffffffffffffffffffffffffffffffffffffffff169050919050565b60008073ffffffffffffffffffffffffffffffffffffffff168273ffffffffffffffffffffffffffffffffffffffff1614151515611151576040517f08c379a000000000000000000000000000000000000000000000000000000000815260040180806020018281038252600f8152602001807f496e76616c69642061646472657373000000000000000000000000000000000081525060200191505060405180910390fd5b600360008373ffffffffffffffffffffffffffffffffffffffff1673ffffffffffffffffffffffffffffffffffffffff168152602001908152602001600020549050919050565b606060008060008060006005878154811015156111b157fe5b90600052602060002090600702016000016005888154811015156111d157fe5b9060005260206000209060070201600101546005898154811015156111f257fe5b906000526020600020906007020160050160009054906101000a900460ff1660058a81548110151561122057fe5b90600052602060002090600702016003015460058b81548110151561124157fe5b9060005260206000209060070201600401546000858054600181600116156101000203166002900480601f0160208091040260200160405190810160405280929190818152602001828054600181600116156101000203166002900480156112ea5780601f106112bf576101008083540402835291602001916112ea565b820191906000526020600020905b8154815290600101906020018083116112cd57829003601f168201915b5050505050955080905095509550955095509550955091939550919395565b3373ffffffffffffffffffffffffffffffffffffffff168273ffffffffffffffffffffffffffffffffffffffff161415151561134457600080fd5b80600460003373ffffffffffffffffffffffffffffffffffffffff1673ffffffffffffffffffffffffffffffffffffffff16815260200190815260200160002060008473ffffffffffffffffffffffffffffffffffffffff1673ffffffffffffffffffffffffffffffffffffffff16815260200190815260200160002060006101000a81548160ff0219169083151502179055508173ffffffffffffffffffffffffffffffffffffffff163373ffffffffffffffffffffffffffffffffffffffff167f17307eab39ab6107e8899845ad3d59bd9653f200f220920489ca2b5937696c3183604051808215151515815260200191505060405180910390a35050565b611450858585610f13565b5050505050565b6000600460008473ffffffffffffffffffffffffffffffffffffffff1673ffffffffffffffffffffffffffffffffffffffff16815260200190815260200160002060008373ffffffffffffffffffffffffffffffffffffffff1673ffffffffffffffffffffffffffffffffffffffff16815260200190815260200160002060009054906101000a900460ff16905092915050565b6000806001600084815260200190815260200160002060009054906101000a900473ffffffffffffffffffffffffffffffffffffffff1690508073ffffffffffffffffffffffffffffffffffffffff168473ffffffffffffffffffffffffffffffffffffffff16148061159157508373ffffffffffffffffffffffffffffffffffffffff1661157984610930565b73ffffffffffffffffffffffffffffffffffffffff16145b806115a257506115a18185611457565b5b91505092915050565b8173ffffffffffffffffffffffffffffffffffffffff166115cb8261106e565b73ffffffffffffffffffffffffffffffffffffffff161415156115ed57600080fd5b600073ffffffffffffffffffffffffffffffffffffffff166002600083815260200190815260200160002060009054906101000a900473ffffffffffffffffffffffffffffffffffffffff1673ffffffffffffffffffffffffffffffffffffffff161415156116aa5760006002600083815260200190815260200160002060006101000a81548173ffffffffffffffffffffffffffffffffffffffff021916908373ffffffffffffffffffffffffffffffffffffffff1602179055505b5050565b8173ffffffffffffffffffffffffffffffffffffffff166116ce8261106e565b73ffffffffffffffffffffffffffffffffffffffff161415156116f057600080fd5b6001600360008473ffffffffffffffffffffffffffffffffffffffff1673ffffffffffffffffffffffffffffffffffffffff1681526020019081526020016000205403600360008473ffffffffffffffffffffffffffffffffffffffff1673ffffffffffffffffffffffffffffffffffffffff1681526020019081526020016000208190555060006001600083815260200190815260200160002060006101000a81548173ffffffffffffffffffffffffffffffffffffffff021916908373ffffffffffffffffffffffffffffffffffffffff1602179055505050565b600073ffffffffffffffffffffffffffffffffffffffff166001600083815260200190815260200160002060009054906101000a900473ffffffffffffffffffffffffffffffffffffffff1673ffffffffffffffffffffffffffffffffffffffff1614151561183b57600080fd5b816001600083815260200190815260200160002060006101000a81548173ffffffffffffffffffffffffffffffffffffffff021916908373ffffffffffffffffffffffffffffffffffffffff1602179055506001600360008473ffffffffffffffffffffffffffffffffffffffff1673ffffffffffffffffffffffffffffffffffffffff1681526020019081526020016000205401600360008473ffffffffffffffffffffffffffffffffffffffff1673ffffffffffffffffffffffffffffffffffffffff168152602001908152602001600020819055505050565b828054600181600116156101000203166002900490600052602060002090601f016020900481019282601f1061195857805160ff1916838001178555611986565b82800160010185558215611986579182015b8281111561198557825182559160200191906001019061196a565b5b5090506119939190611997565b5090565b6119b991905b808211156119b557600081600090555060010161199d565b5090565b9056fea165627a7a72305820a519279ae0165841a7ba8da80c562ffbc0a2810cd69ab7e5fdaa25afc9482a840029",
  "source": "pragma solidity ^0.5.0;\n\nimport \"./Ownable.sol\";\nimport \"./IERC721.sol\";\n\n//ERC721\ncontract DogERC721 is IERC721 {\n    \n    enum Sex {\n        Male,\n        Female\n    }\n    \n    struct Dog {\n        string name;\n        uint256 dob;\n        string microchip;\n        uint256 dam;\n        uint256 sire;\n        Sex sex;\n        uint256 timestamp;\n    }\n    \n    mapping(address => bool) private _writers;\n    mapping(uint256 => address) private _tokenOwner;\n    mapping(uint256 => address) private _tokenApprovals;\n\n    mapping(address => uint256) private _ownedTokensCount;\n    mapping (address => mapping (address => bool)) private operatorApprovals;\n\n    Dog[] public _pack;\n\n    function totalSupply() public view returns(uint256) {\n        return _pack.length;\n    }\n\n    function balanceOf(address _owner) external view returns (uint256 _balance) {\n        require(_owner != address(0), \"Invalid address\");\n        return _ownedTokensCount[_owner];\n    }\n    \n    function exists(uint256 _tokenId) external view returns (bool _exists) {\n        //address owner = _tokenOwner[_tokenId];\n        return ownerOf(_tokenId) != address(0);\n    }\n\n    function ownerOf(uint256 _tokenId) public view returns (address) {\n        return _tokenOwner[_tokenId];\n    }\n\n    function approve(address _to, uint256 _tokenId) external {\n        address owner = ownerOf(_tokenId);\n\n        require(_to != owner, \"Can not be owner\");\n        require(msg.sender == owner || isApprovedForAll(owner, msg.sender), \"Invalid\");\n\n        _tokenApprovals[_tokenId] = _to;\n        emit Approval(owner, _to, _tokenId);\n    }\n\n    function getApproved(uint256 _tokenId) public view returns (address) {\n        return _tokenApprovals[_tokenId];\n    }\n\n    function setApprovalForAll(address _to, bool _approved) public {\n        require(_to != msg.sender);\n        operatorApprovals[msg.sender][_to] = _approved;\n        emit ApprovalForAll(msg.sender, _to, _approved);\n    }\n\n    function isApprovedForAll(address _owner, address _operator) public view returns (bool) {\n        return operatorApprovals[_owner][_operator];\n    }\n    \n    function transferFrom(address _from, address _to, uint256 _tokenId) public {\n        require(isApprovedOrOwner(msg.sender, _tokenId));\n        require(_from != address(0));\n        require(_to != address(0));\n\n        clearApproval(_from, _tokenId);\n        removeTokenFrom(_from, _tokenId);\n        addTokenTo(_to, _tokenId);\n\n        emit Transfer(_from, _to, _tokenId);\n    }\n\n    function safeTransferFrom(address _from, address _to, uint256 _tokenId) external {\n        //safeTransferFrom(_from, _to, _tokenId, \"\");\n    }\n\n    function safeTransferFrom(address _from, address _to, uint256 _tokenId, bytes calldata _data) external {\n        transferFrom(_from, _to, _tokenId);\n    }\n\n    function add(string calldata name, uint256 dob, string calldata microchip, Sex sex, uint256 dam, uint256 sire, address owner) external payable {\n        uint id = _pack.length;\n        _pack.push(Dog(name, dob, microchip, dam, sire, sex, now));\n        _tokenOwner[id] = owner;\n    }\n\n    // function add(string calldata name, uint256 dob, Sex sex, uint256 dam, uint256 sire, address owner) external payable {\n    //     uint id = _pack.length;\n    //     _pack.push(Dog(name, dob, \"\", dam, sire, sex, now));\n    //     _tokenOwner[id] = owner;\n    // }\n\n    function get(uint256 _tokenId) external view returns (string memory, uint256, Sex, uint256, uint256, address) {\n        return (_pack[_tokenId].name, _pack[_tokenId].dob, _pack[_tokenId].sex, _pack[_tokenId].dam, _pack[_tokenId].sire, address(0));\n    }\n\n    function isApprovedOrOwner(address _spender, uint256 _tokenId) internal view returns (bool) {\n        address owner = _tokenOwner[_tokenId];\n        return (_spender == owner || getApproved(_tokenId) == _spender || isApprovedForAll(owner, _spender));\n    }\n\n    function addTokenTo(address _to, uint256 _tokenId) internal {\n        require(_tokenOwner[_tokenId] == address(0));\n        _tokenOwner[_tokenId] = _to;\n        _ownedTokensCount[_to] = _ownedTokensCount[_to] + 1;\n    }\n\n    function removeTokenFrom(address _from, uint256 _tokenId) internal {\n        require(ownerOf(_tokenId) == _from);\n        _ownedTokensCount[_from] = _ownedTokensCount[_from] - 1;\n        _tokenOwner[_tokenId] = address(0);\n    }\n\n    function clearApproval(address _owner, uint256 _tokenId) internal {\n        require(ownerOf(_tokenId) == _owner);\n\n        if (_tokenApprovals[_tokenId] != address(0)) {\n            _tokenApprovals[_tokenId] = address(0);\n        }\n    }\n\n    modifier onlyDogOwner(uint256 _tokenId) {\n        require(_writers[msg.sender] = true, \"Not authorised\");\n        _;\n    }\n\n    event Transfer(address indexed _from, address indexed _to, uint256 _tokenId);\n    event Approval(address indexed _owner, address indexed _approved, uint256 _tokenId);\n    event ApprovalForAll(address indexed _owner, address indexed _operator, bool _approved); \n}",
  "sourcePath": "/Users/lucascullen/GitHub/BitcoinBrisbane/puppies/src/contracts/Dog.sol",
  "compiler": {
    "name": "solc",
    "version": "0.5.0+commit.1d4f565a.Emscripten.clang"
  },
  "schemaVersion": "3.0.1",
  "updatedAt": "2019-01-27T12:21:09.800Z",
  "devdoc": {
    "methods": {}
  },
  "userdoc": {
    "methods": {}
  }
}