{
  "contractName": "Roles",
  "abi": [
    {
      "constant": true,
      "inputs": [
        {
          "name": "who",
          "type": "address"
        }
      ],
      "name": "isWriter",
      "outputs": [
        {
          "name": "",
          "type": "bool"
        }
      ],
      "payable": false,
      "stateMutability": "view",
      "type": "function"
    }
  ],
  "bytecode": "0x608060405234801561001057600080fd5b5061012a806100206000396000f3fe608060405260043610603f576000357c0100000000000000000000000000000000000000000000000000000000900463ffffffff1680632b29ba23146044575b600080fd5b348015604f57600080fd5b50608f60048036036020811015606457600080fd5b81019080803573ffffffffffffffffffffffffffffffffffffffff16906020019092919050505060a9565b604051808215151515815260200191505060405180910390f35b60008060003373ffffffffffffffffffffffffffffffffffffffff1673ffffffffffffffffffffffffffffffffffffffff16815260200190815260200160002060009054906101000a900460ff16905091905056fea165627a7a72305820757031348a3cddc1da4a013d89b2142c1a97ebc52550aed32c8e423726a6846e0029",
  "source": "pragma solidity ^0.5.0;\n\ncontract Roles {\n\n    mapping(address => bool) private _writers;\n\n    modifier onlyWriters() {\n        require(isWriter(msg.sender), \"Only the owner can perform this action\");\n        _;\n    }\n\n    function isWriter(address who) public view returns(bool) {\n        return _writers[msg.sender];\n    }\n}",
  "sourcePath": "/Users/lucascullen/GitHub/BitcoinBrisbane/puppies/src/contracts/Roles.sol",
  "compiler": {
    "name": "solc",
    "version": "0.5.0+commit.1d4f565a.Emscripten.clang"
  },
  "schemaVersion": "3.0.1",
  "updatedAt": "2019-01-24T05:04:27.991Z",
  "devdoc": {
    "methods": {}
  },
  "userdoc": {
    "methods": {}
  }
}