{
  "contractName": "Roles",
  "abi": [
    {
      "constant": true,
      "inputs": [
        {
          "name": "who",
          "type": "address"
        }
      ],
      "name": "isWriter",
      "outputs": [
        {
          "name": "",
          "type": "bool"
        }
      ],
      "payable": false,
      "stateMutability": "view",
      "type": "function"
    }
  ],
  "bytecode": "0x608060405234801561001057600080fd5b506101d4806100206000396000f3fe608060405260043610610041576000357c0100000000000000000000000000000000000000000000000000000000900463ffffffff1680632b29ba2314610046575b600080fd5b34801561005257600080fd5b506100956004803603602081101561006957600080fd5b81019080803573ffffffffffffffffffffffffffffffffffffffff1690602001909291905050506100af565b604051808215151515815260200191505060405180910390f35b60008073ffffffffffffffffffffffffffffffffffffffff168273ffffffffffffffffffffffffffffffffffffffff1614151515610155576040517f08c379a000000000000000000000000000000000000000000000000000000000815260040180806020018281038252600f8152602001807f496e76616c69642061646472657373000000000000000000000000000000000081525060200191505060405180910390fd5b6000803373ffffffffffffffffffffffffffffffffffffffff1673ffffffffffffffffffffffffffffffffffffffff16815260200190815260200160002060009054906101000a900460ff16905091905056fea165627a7a7230582055df235a14aca8be20672451240d2ef7d6b28fff712b7fbe6f613b7bb3306d7f0029",
  "source": "pragma solidity ^0.5.0;\n\ncontract Roles {\n\n    mapping(address => bool) private _writers;\n\n    modifier onlyWriters() {\n        require(isWriter(msg.sender), \"Only the owner can perform this action\");\n        _;\n    }\n\n    function isWriter(address who) public view returns(bool) {\n        require(who != address(0), \"Invalid address\");\n        return _writers[msg.sender];\n    }\n}",
  "sourcePath": "/home/lucascullen/GitHub/BitcoinBrisbane/puppies/src/contracts/Roles.sol",
  "compiler": {
    "name": "solc",
    "version": "0.5.0+commit.1d4f565a.Emscripten.clang"
  },
  "schemaVersion": "3.0.1",
  "updatedAt": "2019-01-27T00:13:54.520Z",
  "devdoc": {
    "methods": {}
  },
  "userdoc": {
    "methods": {}
  }
}